:020000040800F2
:10000000000002202D260008A90A0008AD0A0008F9
:10001000B10A0008B50A0008B90A0008000000008B
:10002000000000000000000000000000BD0A000801
:10003000C10A000800000000C50A0008C90A00083B
:100040007D2600087D2600087D2600087D26000804
:100050007D2600087D2600087D2600087D260008F4
:100060007D2600087D2600087D2600087D260008E4
:100070007D2600087D2600087D2600087D260008D4
:100080007D2600087D2600087D2600087D260008C4
:100090007D2600087D2600087D2600087D260008B4
:1000A0007D2600087D2600087D2600087D260008A4
:1000B0007D2600087D2600087D2600087D26000894
:1000C0007D2600087D2600087D2600087D26000884
:1000D0007D2600087D2600087D2600087D26000874
:1000E0007D2600087D2600087D2600087D26000864
:1000F0007D2600087D2600087D2600087D26000854
:100100007D2600087D2600087D2600087D26000843
:100110007D2600087D2600087D2600087D26000833
:100120007D2600087D2600087D2600087D26000823
:100130007D2600087D2600087D2600087D26000813
:100140007D2600087D2600087D2600087D26000803
:100150007D2600087D2600087D2600087D260008F3
:100160007D2600087D2600087D2600087D260008E3
:100170007D2600087D2600087D2600087D260008D3
:080180007D2600087D26000821
:1001880010B5054C237833B9044B13B10448AFF3C9
:1001980000800123237010BDEC080020000000003F
:1001A8004474000808B5064B1BB106480649AFF36E
:1001B80000800648036813B1054B03B1984708BD92
:1001C8000000000044740008F0080020E80800203F
:1001D80000000000154B002B08BF134B9D46A3F5EC
:1001E800803A00218B460F461348144A121A02F02F
:1001F80081FA0F4B002B00D098470E4B002B00D0F4
:1002080098470020002104000D000D48002802D066
:100218000C4802F061FB02F045FA2000290002F0C8
:1002280091F902F02FFA00BF00000800000000005A
:100238000000000000000000EC08002080090020F9
:10024800E1280008ED28000830B5184B9D895C8925
:10025800D889198A1A7F2C4304430C43D20683B0E9
:10026800A4B208D59D8A5A8AD88A198B2A43024390
:100278000A431443A4B2DA8899881D891868FF2AAA
:1002880045EA010308BF00221C431443002301224E
:10029800694600948DF804208DF805208DF8063005
:1002A8008DF8073000F04AFB03B030BD0809002084
:1002B8002DE9F0410F468046FFF7C6FFFFB1114D0B
:1002C8000024A5F1080648FA04F202F001020134FC
:1002D800306835F8021F00F0C3FBBC42F3DB3189FC
:1002E800306800F0C5FB012001F004F8306831895E
:1002F80000F0BEFB6420BDE8F04100F0FBBF024EF9
:10030800EDE700BF100900200809002038B5104C9F
:100318000A460546A188206800F0A2FBE188FF296B
:1003280002D0206800F09AFB237FDB0609D4280955
:100338000421FFF7BDFF28460421BDE83840FFF738
:10034800B7BF28460821BDE83840FFF7B1BF00BF56
:10035800080900202DE9F04F2A4C2B4DA28083B0CC
:10036800E380BDF830B0BDF834A0BDF83890BDF8D2
:100378003C80BDF840C0BDF84470BDF84860BDF889
:100388004C20BDF850302160A9420190A4F808B073
:10039800A4F80AA0A4F80C90A4F80E80A4F810C041
:1003A8006782A682E282238329D0184B994220D003
:1003B80003F5806399421ED003F5806399421CD0EF
:1003C80003F58063994202D003B0BDE8F08F102096
:1003D800012100F023FDFFF737FF019B23B910230C
:1003E800237703B0BDE8F08F0023237703B0BDE87F
:1003F800F08F0220ECE70420EAE70820E8E7012074
:10040800E6E700BF0809002000000240000402409F
:100418002DE9F0418AB0002494468846BDF840E0B2
:10042800BDF84470BDF84860BDF84C5000930146D3
:1004380042466346CDF804E0029703960495059476
:100448000694079408940120FFF784FF0AB0BDE8DA
:10045800F08100BF08B501200021FFF757FF4FF4D6
:10046800FA60BDE8084000F045BF00BF08B50220AB
:100478000021FFF74BFF4FF4FA60BDE8084000F099
:1004880039BF00BF70B40A4B05460C460FCB85B088
:1004980004AE06E90F0006EB8505002155F8100C9F
:1004A800044464F07F00C0B205B070BCFFF72EBFF3
:1004B8004C720008044B5A7F02F0FB0242F008001D
:1004C80000215A77FFF722BF08090020044B587F04
:1004D800002140F0040240F00C005A77FFF716BFE5
:1004E8000809002038B5374C012882BF237F43F024
:1004F800080323770AB101285ED04CF2503000F08F
:10050800F9FE2068A1882F4D00F0A8FA21892068FB
:1005180000F0A4FAE188FF2902D0286800F09EFACA
:10052800207F284DC3062BD5002140F02000FFF77F
:10053800EDFE41F2941000F0DDFE287F002140F02E
:100548002000FFF7E3FE962000F0D4FE287F00216C
:1005580040F02000FFF7DAFE207F002140F0200065
:10056800FFF7D4FE04236377FFF7B0FFFFF772FFAE
:100578000223A37706200021BDE83840FFF7C6BE56
:1005880004210320FFF794FE41F2941000F0B2FE1C
:1005980004210320FFF78CFE41F2941000F0AAFE1C
:1005A80004210320FFF784FE962000F0A3FE02201A
:1005B8000421FFF77DFECFE7237F43F00403237771
:1005C8009BE700BF08090020044B5A7F02F0FD0298
:1005D80042F0080000215A77FFF798BE080900206A
:1005E800044B587F002140F0020240F00A005A777D
:1005F800FFF78CBE08090020044B5A7F02F0FE0268
:1006080042F0080000215A77FFF780BE0809002051
:10061800044B587F002140F0010240F009005A774E
:10062800FFF774BE0809002018200021FFF76EBEEE
:100638001C200021FFF76ABE044B987F002140F080
:10064800020240F006009A77FFF760BE0809002012
:10065800044B9A7F02F0FD0242F0040000219A77D1
:10066800FFF754BE08090020044B987F002140F092
:10067800010240F005009A77FFF748BE08090020FC
:10068800044B9A7F02F0FE0242F0040000219A77A0
:10069800FFF73CBE0809002000F00700C00038B58D
:1006A80040F040000D460021FFF730FE00240121F4
:1006B800285D0C44FFF72AFE082CF8D138BD00BF8E
:1006C8000121FFF723BE00BF0FB430B58BB00EAACF
:1006D80002A852F8041B019202F070F885B28DB19D
:1006E8009DF808000A280DD002AC013D14FA85F5E2
:1006F80003E014F8010F0A2804D00121FFF706FED1
:10070800AC42F6D10BB0BDE8304004B0704700BF32
:1007180040F0BF60024B40F40030D860704700BF23
:1007280000ED00E0C378F0B463B90378194A5909B9
:10073800203103F01F03012000FA03F342F82130AF
:10074800F0BC7047144B4778DA688578037811490C
:10075800D243C2F30222C2F104040F26E4B207FA1C
:1007680004F446FA02F2E4B22A40224303F1604359
:1007780003F561431201D2B283F800230378012004
:1007880003F01F025B0900FA02F241F82320F0BCD3
:10079800704700BF00E100E000ED00E021F060419B
:1007A80021F07F01014B08439860704700ED00E09D
:1007B800044B1A6919B922EA0000186170471043FE
:1007C8001861704700ED00E0044B1A6804280CBF5C
:1007D80042F0040222F004021A60704710E000E0C0
:1007E80008B54B4B98422AD04A4B984231D04A4BD5
:1007F800984238D0494B98423FD0494B984246D00E
:10080800484B98424DD0484B984254D0474B984259
:100818005BD0474B984262D0464B98426BD0464BD0
:10082800984200D008BD4FF48060012100F032FBEF
:100838004FF480600021BDE8084000F02BBB012088
:10084800014600F027FB01200021BDE8084000F028
:1008580021BB0220012100F01DFB02200021BDE880
:10086800084000F017BB0420012100F013FB04200E
:100878000021BDE8084000F00DBB0820012100F070
:1008880009FB08200021BDE8084000F003BB102048
:10089800012100F0FFFA10200021BDE8084000F017
:1008A800F9BA2020012100F0F5FA20200021BDE846
:1008B800084000F0EFBA4020012100F0EBFA402098
:1008C8000021BDE8084000F0E5BA8020012100F0D1
:1008D800E1FA80200021BDE8084000F0DBBA4FF4BF
:1008E8008070012100F0D6FA4FF480700021BDE835
:1008F800084000F0CFBA4FF40070012100F0CAFAA6
:100908004FF400700021BDE8084000F0C3BA00BFF2
:10091800000002400004024000080240000C0240AF
:10092800001002400014024000180240001C02405F
:1009380000200240002402400028024000222DE945
:10094800F00713460E6801274FF0030804E001334F
:10095800102B02F102022CD007FA03F404EA060570
:10096800A542F4D1D0F8009091F804C008FA02F436
:10097800E44304EA0909C0F80090D0F800900CFAA2
:1009880002FA0CF1FF3C4AEA0909BCF1010FC0F870
:10099800009011D9C56891F807C02C40C460C5689B
:1009A8000CFA02F401332C43102BC46002F102024A
:1009B800D2D1BDE8F0077047D0F808A091F80590AB
:1009C80091F806C004EA0A0AC0F808A0D0F808A0FE
:1009D80009FA02F949EA0A09C0F80890D0F804901F
:1009E80029EA0505456045680CFA03FC1FFA8CFCEA
:1009F8004CEA05054560CDE700234FF6FF7202601B
:100A0800037143718371C371704700BF82B04FF4A3
:100A180080330193019B0B430193019BC361C16127
:100A2800019BC361C3690193C369019302B0704715
:100A3800036919420CBF002001207047006980B289
:100A4800704700BF436919420CBF0020012070475E
:100A5800406980B2704700BF018370474183704787
:100A68000AB9418370470183704700BF41617047ED
:100A78004369594041617047CB0800EB830001F09E
:100A8800070110B48900046A0F238B4024EA03038A
:100A98000362036A5DF8044B8A401343036270479C
:100AA800704700BFFEE700BFFEE700BFFEE700BFDC
:100AB800FEE700BF704700BF704700BF704700BF28
:100AC80000F02ABC0F4B10481968002241F00101C0
:100AD80030B419609A6019680C4D0D4C21F0A8517A
:100AE80021F4102119605D60C3F88440C3F88800C0
:100AF800196821F48021196030BCDA60C3F88C20B1
:100B0800704700BF00380240003000241030002435
:100B180000300020024B00221A701870704700BF86
:100B28000238024082B000230B4A019313689B03EA
:100B38000CD4019B01330193019BB3F5A04FF5D170
:100B4800054B1868C0F3404002B07047019B013361
:100B58000193019BF4E700BF00380240034B1A6879
:100B680022F0F80242EAC0001860704700380240DC
:100B7800014B1860704700BF00004742064B002237
:100B880001281A701A7005D0042802D105221A709B
:100B9800704770471870704770380240014B1860F2
:100BA800704700BF800E474230B4029C064D40EAB1
:100BB80004605B080143013B41EA821242EA0343B5
:100BC8006B6030BC704700BF00380240014B1860B2
:100BD800704700BF600047420907034B41EA801095
:100BE800C3F88400704700BF00380240014B18600A
:100BF800704700BF68004742120742EA0161034B91
:100C080041EA8010C3F88800704700BF00380240EE
:100C1800014B1860704700BF70004742014B1860D5
:100C2800704700BF4C004742034B9A6822F0EC62C1
:100C3800114308439860704700380240034B9A6894
:100C480022F0784211430843986070470038024008
:100C5800034B9A6822F0030210439860704700BF64
:100C680000380240024B986800F00C00704700BF43
:100C780000380240034B9A6822F0F0021043986053
:100C8800704700BF00380240034B9A6822F4E052D4
:100C980010439860704700BF00380240034B9A68C1
:100CA80022F4604242EAC00098607047003802406F
:100CB8001F4A936803F00C03042B10B41BD0082BB5
:100CC8001CD01C4B03601A491B4A8C68C4F30314DC
:100CD800145DE34043608C68C4F38224145D23FAF6
:100CE80004F4846089685DF8044BC1F34231525CB6
:100CF800D340C3607047114B0360E4E75468516800
:100D0800526863024CBF0D4B0A4B01F03F01C2F31E
:100D18008812B3FBF1F303FB02F3054A5268C2F3EE
:100D2800014201325200B3FBF2F30360CBE700BF8C
:100D3800003802400024F4000400002000127A0069
:100D480000F44073B3F5407F09D1084A916820F058
:100D5800704321F4F81123F440730B439360034B61
:100D68001A6FC0F30B001043186770470038024031
:100D7800014B1860704700BF3C0E4742014B18609A
:100D8800704700BF400E4742014B1860704700BFD4
:100D98005C014742044BD3F88C20013822F01F0233
:100DA8000243C3F88C20704700380240054BD3F843
:100DB8008C20013822F4F85242EA0022C3F88C2031
:100DC800704700BF00380240044BD3F88C2022F44F
:100DD80040121043C3F88C00704700BF003802402F
:100DE800044BD3F88C2022F440021043C3F88C0043
:100DF800704700BF00380240044BD3F88C2022F41F
:100E080040321043C3F88C00704700BF00380240DE
:100E1800014B1860704700BFE0114742044B1A6B42
:100E280019B922EA00001863704710431863704725
:100E380000380240044B5A6B19B922EA0000586383
:100E4800704710435863704700380240044B9A6B50
:100E580019B922EA000098637047104398637047F5
:100E680000380240044B1A6C19B922EA00001864D1
:100E7800704710431864704700380240044B5A6C9E
:100E880019B922EA00005864704710435864704743
:100E980000380240044B1A6919B922EA00001861A7
:100EA800704710431861704700380240044B5A6974
:100EB80019B922EA00005861704710435861704719
:100EC80000380240044B9A6919B922EA0000986177
:100ED800704710439861704700380240044B1A6A03
:100EE80019B922EA00001862704710431862704767
:100EF80000380240044B5A6A19B922EA00005862C5
:100F0800704710435862704700380240044B1A6D0E
:100F180019B922EA00001865704710431865704730
:100F280000380240044B5A6D19B922EA000058658E
:100F3800704710435865704700380240044B9A6D5B
:100F480019B922EA00009865704710439865704700
:100F580000380240044B1A6E19B922EA00001866DC
:100F6800704710431866704700380240044B5A6EA9
:100F780019B922EA0000586670471043586670474E
:100F880000380240044B1A6F01280CBF42F00802D7
:100F980022F008021A67704700380240044B1A789A
:100FA80019B922EA0000187070471043187070478A
:100FB8000D3802404309012B0BD0022B094B0CBF03
:100FC8001B6F5B6F00F01F0023FA00F000F00100B8
:100FD8007047044B1B6800F01F0023FA00F000F074
:100FE8000100704700380240024B5A6F42F080728D
:100FF8005A67704700380240034BDB6818420CBF41
:1010080000200120704700BF00380240014B1870D3
:10101800704700BF0E380240704700BF012070477C
:1010280008B501F029FB162303604FF0FF3008BD17
:1010380008B501F021FB16230360FEE770B5161E04
:101048000C4606DD8D19AFF3008004F8010BAC42A5
:10105800F9D1304670BD00BF70B5161E0C4606DDCE
:101068008D1914F8010BAFF30080AC42F9D130466A
:1010780070BD00BF08B50A4B1A6801466AB1104630
:10108800421869468A4201D81A6008BD01F0F4FA8C
:101098000C2303604FF0FF3008BD02481860EFE7EB
:1010A80028090020800900204FF0FF30704700BF5A
:1010B8004FF400534B600020704700BF0120704779
:1010C800002070470EB44FF0FF3003B0704700BFE8
:1010D80008B501F0D1FA0A2303604FF0FF3008BDCC
:1010E80008B501F0C9FA022303604FF0FF3008BDCC
:1010F8004FF0FF30704700BF4FF400534B600020A3
:10110800704700BF08B501F0B7FA1F2303604FF01E
:10111800FF3008BD08B501F0AFFA0B2303604FF0AC
:10112800FF3008BD08B501F0A7FA0C2303604FF0A3
:10113800FF3008BD394A3A4BD2F88810394841F493
:101148007001C2F888101968002241F00101196085
:101158009A60196821F0847121F48031196058600F
:10116800196882B021F480211960DA600092019236
:101178001A6842F480321A601A4603E0009BB3F5FD
:10118800A04F09D0136803F400330193009B013387
:101198000093019B002BF1D0214B1B6813F4003303
:1011A80018BF01230193019B012B05D01B4B4FF066
:1011B80000629A6002B07047194B1B4A186C1B49B1
:1011C80040F080501864106840F4404010609A68FD
:1011D8009A609A6842F400429A609A6842F4A0526F
:1011E8009A6059601A6842F080721A6019460B6852
:1011F8000B4A9B01FBD50E4B40F2057119609368B1
:1012080023F003039360936843F0020393609368A9
:1012180003F00C03082BFAD1C8E700BF00ED00E08B
:101228000038024010300024007000401954400774
:10123800003C0240154B9A6802F00C02042A23D0A5
:10124800082A09D0124A1149124B8968C1F30311BF
:10125800595CCA401A617047586859685B6842020D
:101268004CBF0D4A0A4A01F03F01C3F38813B2FB91
:10127800F1F202FB03F2054B5B68C3F30143013350
:101288005B00B2FBF3F2DEE7034ADCE7003802401A
:101298000024F4001800002000127A0010B5FFF7AF
:1012A800C9FF0A4A0A4B1268A3FB02139B0C013BB5
:1012B800B3F1807F09D2074A07485360F024002120
:1012C800072380F823409160136010BD2800002098
:1012D80083DE1B4310E000E000ED00E04FF47A737A
:1012E800034A03FB00F010601368002BFCD1704721
:1012F80074090020024A10601368002BFCD1704763
:10130800740900207474000800000020E808002018
:10131800EC080020800900200B48016800291CBF48
:10132800013901600948016801F10101B1F57A7FCD
:10133800C0F207804FF0000101600548016801F123
:101348000101016070470000740900207009002045
:1013580078090020844641EA000313F003036DD1A5
:10136800403A41D351F8043B40F8043B51F8043B60
:1013780040F8043B51F8043B40F8043B51F8043B67
:1013880040F8043B51F8043B40F8043B51F8043B57
:1013980040F8043B51F8043B40F8043B51F8043B47
:1013A80040F8043B51F8043B40F8043B51F8043B37
:1013B80040F8043B51F8043B40F8043B51F8043B27
:1013C80040F8043B51F8043B40F8043B51F8043B17
:1013D80040F8043B51F8043B40F8043B51F8043B07
:1013E80040F8043B403ABDD2303211D351F8043BA7
:1013F80040F8043B51F8043B40F8043B51F8043BE7
:1014080040F8043B51F8043B40F8043B103AEDD255
:101418000C3205D351F8043B40F8043B043AF9D2A6
:10142800043208D0D2071CBF11F8013B00F8013B79
:1014380001D30B8803806046704700BF082A13D386
:101448008B078DD010F003038AD0C3F10403D21A9E
:10145800DB071CBF11F8013B00F8013B80D331F8D2
:10146800023B20F8023B7BE7043AD9D3013A11F852
:10147800013B00F8013BF9D20B7803704B784370BD
:101488008B7883706046704740EA010C1CF0070FA8
:1014980023D1BDF1100DCDE90245CDE900676FF00C
:1014A80000064FF0000700BFF0E80223F1E802450C
:1014B800A24282FA46FCA7FA86FC08BFBCF1000FDC
:1014C80040F0D780AB4283FA46FCA7FA86FC08BFF7
:1014D800BCF1000F40F0CA80E6E710F0030C21D001
:1014E80020F0030050F8042B5FEACC7C08D00FD220
:1014F80011F801CB5FFA92F3B3EB0C0C10D17BB16E
:1015080011F801CB5FFAA2F3B3EB0C0C08D13BB195
:1015180011F801CB5FFAB2F3B3EB0C0C00D10BB9A5
:1015280060467047BDF1100DCDE90245CDE9006771
:101538006FF000064FF0000711F0030C2DD110F0EA
:10154800040F0DD050F8042B51F8044BA24282FA34
:1015580046FCA7FA86FC08BFBCF1000F40F0898062
:1015680011F0040F9FD051F8045B00BFF0E802238C
:10157800AA4282FA46FCA7FA86FC08BFBCF1000F13
:1015880071D1F1E80245A34283FA46FCA7FA86FC2A
:1015980008BFBCF1000F63D1E8E721F00301BCF1FB
:1015A800020F1ED03BDA51F8045B00BF50F8043B31
:1015B8004FEA152583FA46FCA7FA86FCB7EB0C2FF1
:1015C80003EA162208BFAA424DD151F8045BBCF1C8
:1015D800000F82EA03034FEA056208BF93423CD139
:1015E800E4E751F8045B00BF50F8043B4FEA1545A7
:1015F80083FA46FCA7FA86FCB7EB0C4F03EA1642BF
:1016080008BFAA422FD151F8045BBCF1000F82EA4F
:1016180003034FEA054208BF93421ED1E4E751F89D
:10162800045B00BF50F8043B4FEA156583FA46FC9B
:10163800A7FA86FCB7EB0C6F03EA166208BFAA424A
:1016480011D151F8045BBCF1000F82EA03034FEAA1
:10165800052208BF934200D1E4E719BA12BA0AE09A
:1016680019BA22BA07E011BA2ABA04E019BA2ABA92
:1016780001E011BA22BA9CFA8CF0DDE90067DDE9D5
:1016880002451DF1100D38B1B0FA80F0C0F1180014
:1016980021FA00F122FA00F20120914298BF80411C
:1016A800704700BF81F0004102E000BF83F00043B3
:1016B80030B54FEA41044FEA430594EA050F08BFE5
:1016C80090EA020F1FBF54EA000C55EA020C7FEAA9
:1016D800645C7FEA655C00F0E2804FEA5454D4EB26
:1016E8005555B8BF6D420CDD2C4480EA020281EAF0
:1016F800030382EA000083EA010180EA020281EA28
:101708000303362D88BF30BD11F0004F4FEA013179
:101718004FF4801C4CEA113102D0404261EB410188
:1017280013F0004F4FEA03334CEA133302D052420E
:1017380063EB430394EA050F00F0A780A4F10104CA
:10174800D5F1200E0DDB02FA0EFC22FA05F2801804
:1017580041F1000103FA0EF2801843FA05F35941EA
:101768000EE0A5F120050EF1200E012A03FA0EFC69
:1017780028BF4CF0020C43FA05F3C01851EBE37193
:1017880001F0004507D54FF0000EDCF1000C7EEBB0
:1017980000006EEB0101B1F5801F1BD3B1F5001FEE
:1017A8000CD349085FEA30004FEA3C0C04F101040D
:1017B8004FEA445212F5800F80F09A80BCF1004F36
:1017C80008BF5FEA500C50F1000041EB045141EAB8
:1017D800050130BD5FEA4C0C404141EB010111F4B9
:1017E800801FA4F10104E9D191F0000F04BF014664
:1017F8000020B1FA81F308BF2033A3F10B03B3F142
:1018080020020CDA0C3208DD02F1140CC2F10C02D1
:1018180001FA0CF021FA02F10CE002F11402D8BF2F
:10182800C2F1200C01FA02F120FA0CFCDCBF41EAFB
:101838000C019040E41AA2BF01EB0451294330BDCA
:101848006FEA04041F3C1CDA0C340EDC04F11404A7
:10185800C4F1200220FA04F001FA02F340EA03007E
:1018680021FA04F345EA030130BDC4F10C04C4F1C4
:10187800200220FA02F001FA04F340EA03002946A4
:1018880030BD21FA04F0294630BD94F0000F83F4EE
:10189800801306BF81F480110134013D4EE77FEAD1
:1018A800645C18BF7FEA655C29D094EA050F08BF1D
:1018B80090EA020F05D054EA000C04BF19461046FE
:1018C80030BD91EA030F1EBF0021002030BD5FEA42
:1018D800545C05D14000494128BF41F0004130BD6A
:1018E80014F580043CBF01F5801130BD01F00045BE
:1018F80045F0FE4141F470014FF0000030BD7FEA31
:10190800645C1ABF194610467FEA655C1CBF0B462B
:10191800024650EA013406BF52EA033591EA030F42
:1019280041F4002130BD00BF90F0000F04BF00213A
:10193800704730B54FF4806404F132044FF000056D
:101948004FF0000150E700BF90F0000F04BF0021E6
:10195800704730B54FF4806404F1320410F000454C
:1019680048BF40424FF000013EE700BF42004FEA47
:10197800E2014FEA31014FEA02701FBF12F07F43C4
:1019880093F07F4F81F06051704792F0000F14BFC1
:1019980093F07F4F704730B54FF4607401F0004505
:1019A80021F0004120E700BF50EA010208BF70475C
:1019B80030B54FF000050AE050EA010208BF704751
:1019C80030B511F0004502D5404261EB41014FF4BA
:1019D800806404F132045FEA915C3FF4DCAE4FF0BE
:1019E80003025FEADC0C18BF03325FEADC0C18BFA5
:1019F800033202EBDC02C2F1200300FA03FC20FAF6
:101A080002F001FA03FE40EA0E0021FA02F1144442
:101A1800C1E600BF70B54FF0FF0C4CF4E06C1CEA57
:101A280011541DBF1CEA135594EA0C0F95EA0C0FCC
:101A380000F0DEF82C4481EA030621EA4C5123EA3F
:101A48004C5350EA013518BF52EA033541F480116E
:101A580043F4801338D0A0FB02CE4FF00005E1FB21
:101A680002E506F00042E0FB03E54FF00006E1FB6B
:101A780003569CF0000F18BF4EF0010EA4F1FF04AE
:101A8800B6F5007F64F5407404D25FEA4E0E6D41EE
:101A980046EB060642EAC62141EA55514FEAC520FF
:101AA80040EA5E504FEACE2EB4F1FD0C88BFBCF57B
:101AB800E06F1ED8BEF1004F08BF5FEA500E50F12C
:101AC800000041EB045170BD06F0004646EA0101F2
:101AD80040EA020081EA0301B4EB5C04C2BFD4EB24
:101AE8000C0541EA045170BD41F480114FF0000E1D
:101AF800013C00F3AB8014F1360FDEBF002001F08B
:101B0800004170BDC4F10004203C35DA0C341BDC04
:101B180004F11404C4F1200500FA05F320FA04F0D6
:101B280001FA05F240EA020001F0004221F000410A
:101B380010EBD37021FA04F642EB06015EEA430E7D
:101B480008BF20EAD37070BDC4F10C04C4F12005AD
:101B580000FA04F320FA05F001FA04F240EA020060
:101B680001F0004110EBD37041F100015EEA430E31
:101B780008BF20EAD37070BDC4F1200500FA05F251
:101B88004EEA020E20FA04F301FA05F243EA0203D0
:101B980021FA04F001F0004121FA04F220EA0200DF
:101BA80000EBD3705EEA430E08BF20EAD37070BD25
:101BB80094F0000F0FD101F00046400041EB010105
:101BC80011F4801F08BF013CF7D041EA060195F0E7
:101BD800000F18BF704703F00046520043EB0303A1
:101BE80013F4801F08BF013DF7D043EA060370478E
:101BF80094EA0C0F0CEA135518BF95EA0C0F0CD099
:101C080050EA410618BF52EA4306D1D181EA0301DE
:101C180001F000414FF0000070BD50EA410606BFD8
:101C28001046194652EA430619D094EA0C0F02D11D
:101C380050EA013613D195EA0C0F05D152EA033662
:101C48001CBF104619460AD181EA030101F0004180
:101C580041F0FE4141F470014FF0000070BD41F0C9
:101C6800FE4141F4780170BD70B54FF0FF0C4CF4A3
:101C7800E06C1CEA11541DBF1CEA135594EA0C0FC2
:101C880095EA0C0F00F0A7F8A4EB050481EA030E0F
:101C980052EA03354FEA013100F088804FEA0333F6
:101CA8004FF0805545EA131343EA12634FEA0222C4
:101CB80045EA111545EA10654FEA00260EF0004185
:101CC8009D4208BF964244F1FD0404F5407402D2D7
:101CD8005B084FEA3202B61A65EB03055B084FEA68
:101CE80032024FF480104FF4002CB6EB020E75EB65
:101CF800030E22BFB61A754640EA0C005B084FEA8D
:101D08003202B6EB020E75EB030E22BFB61A754609
:101D180040EA5C005B084FEA3202B6EB020E75EB54
:101D2800030E22BFB61A754640EA9C005B084FEACC
:101D38003202B6EB020E75EB030E22BFB61A7546D9
:101D480040EADC0055EA060E18D04FEA051545EAC8
:101D580016754FEA06164FEAC30343EA52734FEA71
:101D6800C2025FEA1C1CC0D111F4801F0BD141EAEA
:101D780000014FF000004FF0004CB6E711F4801F4F
:101D880004BF01430020B4F1FD0C88BFBCF5E06F2F
:101D98003FF6AFAEB5EB030C04BFB6EB020C5FEA3F
:101DA800500C50F1000041EB045170BD0EF0004E94
:101DB8004EEA113114EB5C04C2BFD4EB0C0541EAC6
:101DC800045170BD41F480114FF0000E013C90E6C3
:101DD80045EA060E8DE60CEA135594EA0C0F08BF87
:101DE80095EA0C0F3FF43BAF94EA0C0F0AD150EA86
:101DF80001347FF434AF95EA0C0F7FF425AF104619
:101E080019462CE795EA0C0F06D152EA03353FF440
:101E1800FDAE1046194622E750EA410618BF52EABD
:101E280043067FF4C5AE50EA41047FF40DAF52EA91
:101E380043057FF4EBAE12E74FF0FF3C06E000BF2E
:101E48004FF0010C02E000BF4FF0010C4DF804CD3B
:101E58004FEA410C7FEA6C5C4FEA430C18BF7FEAFB
:101E68006C5C1BD001B050EA410C0CBF52EA430C29
:101E780091EA030F02BF90EA020F0020704710F1A9
:101E8800000F91EA030F58BF994208BF90422CBF38
:101E9800D8176FEAE37040F0010070474FEA410C31
:101EA8007FEA6C5C02D150EA013C07D14FEA430C4F
:101EB8007FEA6C5CD6D152EA033CD3D05DF8040BC0
:101EC800704700BF8446104662468C4619466346F2
:101ED80000E000BF01B5FFF7B7FF002848BF10F1C9
:101EE800000F01BD4DF808EDFFF7F4FF0CBF01200E
:101EF80000205DF808FB00BF4DF808EDFFF7EAFF8A
:101F080034BF012000205DF808FB00BF4DF808ED44
:101F1800FFF7E0FF94BF012000205DF808FB00BF39
:101F28004DF808EDFFF7CEFF94BF012000205DF8C3
:101F380008FB00BF4DF808EDFFF7C4FF34BF0120D0
:101F480000205DF808FB00BF4FEA410212F50012BD
:101F580015D211D56FF47873B3EB625212D94FEAE8
:101F6800C12343F0004343EA505311F0004F23FAD2
:101F780002F018BF404270474FF00000704750EA27
:101F8800013005D111F0004008BF6FF000407047E4
:101F98004FF00000704700BF4BB942B9002908BF95
:101FA800002802D04FF0FF31084600F03BB882B05D
:101FB800EC462DE9005000F01DF8DDF804E002B011
:101FC8000CBC70472DE97043069E14461D4680469A
:101FD800894600F029F804FB01F300FB0533A4FB54
:101FE80000451D44B8EB040469EB0505C6E9004546
:101FF800BDE870832DE97043069E144680468946E5
:102008001D4600F05DF900FB05F504FB0153A0FB3C
:1020180004451D44B8EB040469EB0505C6E9004511
:10202800BDE87083704700BF00292DE9F00FC0F2AA
:102038009F800024002BC0F29680154606460F4666
:10204800002B3ED18A4257D9B2FA82F34BB1C3F181
:10205800200201FA03F720FA02F29D40174300FA22
:1020680003F6290CB7FBF1F2330C01FB127CA8B282
:1020780043EA0C4700FB02F3BB4209D97F1902F17E
:10208800FF3C80F00181BB4240F2FE80023A2F44BF
:10209800FF1AB7FBF1F3B6B201FB137146EA01412F
:1020A80000FB03F0884208D9491903F1FF3780F093
:1020B800ED80884240F2EA80023B43EA0242002374
:1020C80003E08B420AD900231A461046194614B178
:1020D800404261EB4101BDE8F00F7047B3FA83F865
:1020E800B8F1000F40F084808B4202D3824200F2A4
:1020F800DE8000230122E8E712B90123B3FBF2F5E1
:10210800B5FA85F2002A39D17F1B280C1FFA85FC05
:102118000123B7FBF0F1320C00FB117742EA0747C5
:102128000CFB01F2BA4207D97F1901F1FF3802D23C
:10213800BA4200F2C1804146BF1AB7FBF0F2B6B20C
:1021480000FB127046EA00400CFB02FC844507D9EC
:10215800401902F1FF3702D2844500F2AB803A46BB
:1021680042EA0142B1E7E443524263EB430364E7C6
:10217800404261EB41014FF0FF345BE79540C2F10B
:10218800200327FA03F1280C26FA03F39740B1FB42
:10219800F0F81F433B0C00FB18111FFA85FC43EABB
:1021A80001410CFB08F38B4206FA02F608D94919DB
:1021B80008F1FF3279D28B4277D9A8F10208294475
:1021C800C91AB1FBF0F3BFB200FB131147EA01478C
:1021D8000CFB03F2BA4207D97F1903F1FF3160D231
:1021E800BA425ED9023B2F44BF1A43EA084390E73C
:1021F800C8F1200203FA08FC25FA02F343EA0C0CA2
:102208004FEA1C4921FA02F301FA08F720FA02F210
:10221800B3FBF9F1174309FB11333A0C1FFA8CFB96
:1022280042EA03430BFB01FA9A4505FA08F008D97C
:1022380013EB0C0301F1FF3235D29A4533D9023939
:102248006344CAEB0303B3FBF9F209FB1233BFB2D1
:1022580047EA03470BFB02F9B94508D917EB0C0706
:1022680002F1FF331BD2B94519D9023A674442EA51
:102278000145A5FB0001C9EB07078F424FF000039A
:102288000AD305D02A4620E7624601E73B4614E711
:1022980006FA08F68642F5D26A1E002315E71A46A2
:1022A800E5E70B46A0E71146CBE7904688E74346AB
:1022B80042460AE7023A53E702392F443CE700BF97
:1022C8002DE9F00F144605460E46002B43D18A42ED
:1022D80053D9B2FA82F757B1C7F1200620FA06F6A9
:1022E80001FA07F302FA07F41E4300FA07F5210C76
:1022F800B6FBF1F22B0C01FB1267A0B243EA0746CA
:1023080000FB02F3B34209D9361902F1FF3780F016
:10231800F680B34240F2F380023A2644F61AB6FB3E
:10232800F1F3ADB201FB136145EA014100FB03F093
:10233800884208D9091903F1FF3680F0E280884203
:1023480040F2DF80023B43EA02420023104619466E
:10235800BDE8F00F70478B424AD8B3FA83F6002ED7
:102368004DD18B4202D3824200F2D6800023012253
:1023780010461946BDE8F00F704712B90124B4FBA6
:10238800F2F4B4FA84F2002A7CD1091B260CA7B215
:102398000123B1FBF6F02A0C06FB101142EA0141B9
:1023A80007FB00F28A4207D9091900F1FF3C02D263
:1023B8008A4200F2C3806046891AB1FBF6F2ADB2D8
:1023C80006FB121145EA014507FB02F7AF4208D99F
:1023D8002C1902F1FF3180F09680A74240F29380D9
:1023E800023A42EA004210461946BDE8F00F70472B
:1023F80000231A4610461946BDE8F00F7047C6F18B
:10240800200522FA05F4B3401C434FEA144821FA88
:1024180005F301FA06F720FA05F5B3FBF8FC2F439C
:1024280008FB1C333D0C1FFA84FA45EA03430AFBF8
:102438000CF9994502FA06FB04D91B190CF1FF3275
:102448006DD39446C9EB0303B3FBF8F508FB1533CA
:10245800BFB247EA03470AFB05F8B84504D93F1954
:1024680005F1FF3361D31D4645EA0C4CACFB0B2349
:10247800C8EB07079F424FF0000549D345D0624695
:102488002B4663E79440C2F1200321FA03FC260C93
:1024980020FA03F301FA02F5BCFBF6F843EA05015A
:1024A8000B0C06FB18CCA7B243EA0C4C07FB08F34D
:1024B800634500FA02F509D91CEB040C08F1FF3258
:1024C8003AD2634538D9A8F10208A444C3EB0C0CEE
:1024D800BCFBF6F389B206FB13CC41EA0C4107FBBF
:1024E80003F28A4207D9091903F1FF3022D28A423E
:1024F80020D9023B2144891A43EA084349E73A466E
:102508000CE733461FE70A466BE7B0409042B6D265
:102518000CF1FF32002319E73346324616E7994596
:102528008FD9ACF1020C23448CE7B8459BD9023D06
:10253800274499E70346DEE79046C7E70238214477
:102548003AE700BF30B587B0FEF7A8FE4FF48060C9
:102558004FF400614FF480524FF400538DE80F00A0
:1025680000F180404FF400731C2400254FF4807262
:1025780000F50330802105958DF810408DF8114045
:102588008DF812408DF813408DF814408DF81540E1
:102598008DF81640FDF73CFF284604A9FEF77CF8A5
:1025A8002A4602201021FDF79DFF09211B48FEF74E
:1025B8008BF82846FEF784F841F28830FEF78EFE45
:1025C800FDF748FF4FF4FA60FEF788FE052128461C
:1025D800FDF758FFFEF71CF84FF4FA60FEF77EFE91
:1025E800FEF70AF8FDF7FCFF4FF4FA60FEF776FEF7
:1025F8002420FEF765F8FEF717F84FF4FA60FEF7A7
:102608006DFEFEF725F80648FEF75EF84FF47A707F
:10261800FEF764FEFEF70CF8F8E700BF5C720008EE
:102628006C720008002100F004B80D4B5B58435051
:1026380004310C480C4B42189A42FFF4F6AF0B4A8F
:1026480000F003B8002342F8043B094B9A42FFF418
:10265800F9AFFEF76FFD00F025F8FFF773FF70473D
:102668007474000800000020E8080020EC0800202E
:1026780080090020FFF7FEBF014B1868704700BFB4
:102688005804002008B50021044600F0ADF8044BBA
:102698001868C36B03B19847204604F0DDFE00BFFD
:1026A8007872000870B50F4E0F4D761BB61007D024
:1026B800043D0024013455F8043F9847A642F9D157
:1026C8000A4E0B4D761B04F0BBFEB61008D0043D35
:1026D8000024013455F8043F9847A642F9D170BD4B
:1026E80070BD00BF68740008687400087074000842
:1026F80068740008F0B4840743D0541E002A3ED002
:10270800CDB2034603E0621E002C38D0144603F80D
:10271800015B9A07F7D1032C2AD9CDB245EA0525E2
:102728000F2C45EA054515D9A4F110073F0903F117
:10273800100606EB07161A46156055609560D560B9
:102748001032B242F8D104F00F040137032C03EB26
:1027580007130DD91E462246043A032A46F8045B9D
:10276800FAD8221F22F003020432134404F00304AF
:102778002CB1C9B21C4403F8011BA342FBD1F0BC25
:10278800704714460346C6E7F0B59BB00D466FF098
:1027980000444FF402774FF6FF766946009504959A
:1027A800ADF80C7002940594ADF80E6000F0B4F822
:1027B800009B00221A701BB0F0BD00BF30B4044C5F
:1027C8000D46134601462A46206830BCFFF7DCBF99
:1027D80058040020024B13B1024800F07DB870473E
:1027E80000000000ED2800082DE9F04F384B1B6869
:1027F80085B003F5A472019302900F460392019BE2
:10280800D3F84881B8F1000F1CD0DDF80CB04FF0B8
:102818000109DA46D8F804305C1E11D408F188059D
:102828009E1C05EB830508EB860677B1EB6FBB4270
:102838000BD0013C631CA5F10405A6F10406F4D1F4
:10284800244A7ABB05B0BDE8F08FD8F8042056F8C2
:10285800043C013AA24216BF0022C8F8044046F8D8
:10286800042C002BE5D0D8F88811D8F804B009FA60
:1028780004F20A4210D0D8F88C110A420ED10298FC
:1028880055F8041C9847D8F804305B45B7D1DAF8F6
:1028980000304345CDD0B2E79847F4E755F8040C2B
:1028A8009847F0E7D8F804306BB9D8F8003063B12E
:1028B8004046CAF80030AFF30080DAF80080B8F17B
:1028C800000FA7D1BEE7D8F80030C2469846F6E711
:1028D8007872000800000000014600200246034606
:1028E80001F092BA38B5094D094C641BA41018BF01
:1028F80005EB840505D0013C55F8043D9847002CAC
:10290800F9D1BDE8384004F0A1BD00BF70740008DB
:1029180074740008000000002DE9F04FC5B091461E
:102928000C930891099002F0B7FA0068119003F02F
:1029380053FA089C1490A3891A0603D52369002B1F
:1029480001F092809FED967B8DED127B002334ACD5
:102958000D93049429932893169315930A93279417
:10296800264699F80030002B00F0F880252B00F05F
:10297800F58009F1010201E0252B04D0144601324B
:102988002378002BF8D1C9EB04057DB1289B299A3F
:10299800C6F8009001332A44072B756029922893C2
:1029A80000F3C28008360A9828440A902378002B3E
:1029B80000F0C280002394F801808DF87F301A4619
:1029C8000B93059304F101094FF0FF34069409F1C4
:1029D8000109A8F12003582B00F2CC83DFE813F09B
:1029E8006F02CA03CA037602CA03CA03CA03CA0328
:1029F800CA03CA0319036903CA039D00C000CA03B6
:102A08007D02840284028402840284028402840295
:102A180084028402CA03CA03CA03CA03CA03CA03D4
:102A2800CA03CA03CA03CA0395027403CA03740318
:102A3800CA03CA03CA03CA036D03CA03CA037800D8
:102A4800CA03CA03CA03CA03CA035900CA03CA038A
:102A5800B402CA03CA03CA03CA03CA03CA03CA031D
:102A6800CA03CA03CA033C034D0374037403740303
:102A780004034D03CA03CA030D03CA03CA027C0038
:102A88002603AA03CA03DE02CA035F00CA03CA03F5
:102A9800E400DDF814C04CF0100CCDF814C0059C0F
:102AA800A20600F15B83059CE30600F1E585DDF8ED
:102AB80014C01CF0400F00F0DF85DDF830C0BCF812
:102AC80000400CF1040C00250123CDF830C092E041
:102AD800059D45F010050595DDF814C01CF0200390
:102AE80040F03183DDF814C01CF0100240F0BD85C1
:102AF800DDF814C01CF0400300F0B785DDF830C0E5
:102B0800BCF800400CF1040C13460025CDF830C089
:102B180071E00B9C0C9364420B94059D45F00405F1
:102B2800059599F8008052E70998089927AA03F0B3
:102B380083F940B934AE36E7299B23B1099808993F
:102B480027AA03F079F9089C0A98A38913F0400F83
:102B580018BF4FF0FF3045B0BDE8F08F4C4625E771
:102B680099F80080B8F12A0F09F1010001F01B81E2
:102B7800A8F13003092B98BF002101F28B8010F8CF
:102B8800018B01EB810103EB4101A8F13003092B13
:102B9800F5D941EAE171069181461AE7AFF3008061
:102BA8000000000000000000059DA14C1694AF062F
:102BB8008DF87F2040F1D081DDF830C00CF107039B
:102BC80023F0070303F108040C94D3E90045DDF86A
:102BD80014C01CF0010F00F0638454EA050000F0F3
:102BE8005F8430234CF0020C8DF880308DF88180A2
:102BF800CDF814C002234FF0000A8DF87FA0069983
:102C0800002905DBDDF814C02CF0800CCDF814C0C9
:102C180054EA050040F0C6820699002940F0C282B5
:102C2800002B40F03984DDF814C01CF0010F00F0CF
:102C3800338444AF302307F8413D049DEC1BDDF895
:102C480018C000256445A8BFA446CDF81CC010953F
:102C5800BAF1000F02D0079D01350795059B13F0C7
:102C680002030E9302D0079D02350795DDF814C0C4
:102C78001CF0840CCDF83CC040F091820B9DDDF82F
:102C88001CC0CCEB050BBBF1000F40F38882BBF1F5
:102C9800100F2999289ADFF8A0A12CDD1797304644
:102CA80057461025CA46089EA146099C06E0ABF186
:102CB800100BBBF1100F00F1080017DD01321031C5
:102CC800072A2991289207604560F0DD20463146A1
:102CD80027AA03F0B1F800287FF435AFABF1100B49
:102CE800BBF1100F2999289A34A8E7DC4C46D14645
:102CF800BA46179F064601320BEB010C072ACDF89E
:102D0800A4C0289286E8000C00F31B849DF87FA0DD
:102D18000836BAF1000F0FD0289B01330CF1010CD3
:102D28000DF17F010122072BCDF8A4C0289386E876
:102D3800060000F3998308360E9B73B1289B013374
:102D48000CF1020C20A90222072BCDF8A4C028936D
:102D580086E8060000F3948308360F9D802D00F066
:102D6800CB82069DC4EB050ABAF1000F3BDDBAF130
:102D7800100F289B2F4D2BDD069432464FF0100B79
:102D88002E466146099C089D06E0AAF1100ABAF190
:102D9800100F02F1080217DD01331031072B2991BA
:102DA800289382E84008F0DD2046294627AA03F048
:102DB80043F800287FF4C7AEAAF1100ABAF1100F41
:102DC8002999289B34AAE7DC069C35468C4616468A
:102DD8000133D444072BCDF8A4C0289386E82004F7
:102DE80000F336830836059DED0500F12582289B02
:102DF80037600133A444072BCDF8A4C0746028932E
:102E080000F310830836059C630748D50B9D079887
:102E18002C1A002C43DD102C289BDFF81CA02ADD7F
:102E2800574610256246DDF82080DDF824A00AE028
:102E3800B07200087C720008D0720008103C102C98
:102E480006F1080615DD01331032072B2992289365
:102E580037607560F2DD5046414627AA02F0ECFF64
:102E680000287FF470AE103C102C299A289B34AEB1
:102E7800E9DC9446BA460133A444072BCDF8A4C034
:102E88002893C6F800A0746009DD0998089927AA54
:102E980002F0D2FF00287FF456AEDDF8A4C00A9CE9
:102EA80007980B9DA842ACBF241864190A94BCF17A
:102EB800000F40F0C3820023289334AE51E599F8FF
:102EC8000080002A7FF483AD202280E5059D45F02F
:102ED8000105059599F8008079E5059D45F080057F
:102EE800059599F8008072E50024A8F130030B9449
:102EF800214619F8018B01EB810103EB4101A8F18F
:102F08003003092BF5D90B9163E5DDF814C08DF872
:102F18007F204CF0100CCDF814C0059CA30640F19E
:102F2800B2800C9DE91D21F00701D1E90023083189
:102F38000C9114461D46002A73F10000C0F28B83E1
:102F48009DF87FA001235AE6059DB74C8DF87F2098
:102F5800AF0616943FF530AE059DED0640F160844E
:102F6800DDF830C0DCF800400CF1040CCDF830C0BE
:102F780000252CE6DDF814C08DF87F201CF0200F0A
:102F880000F040840C9C21680A9CE5172B460C9D98
:102F9800224604350C95C1E90023E2E40C9C27681D
:102FA8004FF0000A8DF87FA0251D002F00F0F58551
:102FB800069C002C3846C0F28B855146224602F00A
:102FC80017FA002800F05A86069C0C95C01BA042F0
:102FD800B8BF044624EAE475CDF818A0CDF840A09F
:102FE80007959DF87FA033E6DDF814C04CF0400C3F
:102FF800CDF814C099F80080E9E499F80080B8F198
:103008006C0F4B4600F08F84059D45F01005059523
:10301800DDE40C9C0C9D24680B94002C05F1040342
:10302800FFF677AD0C9399F80080D0E40C9ADDF8A0
:1030380014C07E48146816903023151D4FF0780888
:103048004CF0020C8DF880300C95CDF814C000259A
:103058008DF881800223CEE50C9A0C9D12688DF8BC
:10306800A8200023012404359A4607940C958DF86E
:103078007F30069310932AAFF0E5059C8DF87F20EA
:10308800A3063FF54EAFDDF814C01CF0100F40F05A
:10309800D282059C670640F1CE82DDF830C0BCF9CB
:1030A80000400CF1040CE51722462B46CDF830C041
:1030B80041E799F800802B2289E4059D45F0080531
:1030C800059599F8008082E4059C8DF87F202507F6
:1030D80040F18D830C9DEB1D23F0070393ED007BDE
:1030E8008DED127B03F1080CCDF830C09DED120B6D
:1030F80002F036FE012840F06183DDE9120100226A
:103108000023FEF7F9FE002840F075859DF87FA0A2
:10311800DDF814C0464F474B002503242CF0800CE3
:1031280007940695CDF814C0B8F1470FD8BF1F46CD
:1031380010958DE5DDF814C04CF0200CCDF814C0C6
:1031480099F8008043E40C9CE31D23F0070303F186
:1031580008050C95D3E9004500234CE50C9DEB1DB3
:1031680023F0070303F1080CD3E90045CDF830C07C
:10317800012340E58DF87F20B8F1000F3FF4DCAC67
:1031880000234FF0010C9A46CDF81CC08DF8A8809A
:103198008DF87F300693109364462AAF5EE5DDF81C
:1031A800A4C0B6E5012B00F0EC80022B0DF1CF0393
:1031B80018D1DDF858C0194604F00F00220942EA78
:1031C80005720F462B091CF80010397052EA0300EB
:1031D80014461D4607F1FF31EED1049DCDE91A23AF
:1031E800EC1B2CE5E00840EA457004F00702E9080A
:1031F800303250EA010C1F461A7004460D4603F19E
:10320800FF33EFD1059CCDE91801E007394640F1BD
:10321800C180302A00F0BE80049D1F463023EC1B7D
:1032280001F8013C0BE500BF9C720008B072000871
:10323800907200088C720008B8F1650F40F3AD80F9
:10324800DDE9120100220023CDF80CC0FEF74AFE8A
:10325800DDF80CC0002800F02681289BAA4A3260BD
:1032680001330CF1010C0122072BCDF8A4C02893DF
:10327800726000F3FB820836219B0D9CA34203DB9E
:10328800059DEC077FF5BFAD289B149D119C34600C
:103298000133AC44072BCDF8A4C07560289300F324
:1032A8004C8308360D9D6C1E002C7FF7ACAD102C9E
:1032B800289B964D40F3978110276246DDF82480BD
:1032C800DDF820A004E00836103C102C40F38A8179
:1032D80001331032072B2992289386E8A000F2DDEB
:1032E8004046514627AA02F0A7FD00287FF42BACE0
:1032F800299A289B34AEE7E70B9D0798C0EB050A8F
:10330800BAF1000F7FF72DADBAF1100F289B7F4D52
:103318002BDD0E9432464FF0100B2E466146099C69
:10332800089D06E0AAF1100ABAF1100F02F108028E
:1033380017DD01331031072B2991289382E84008C3
:10334800F0DD2046294627AA02F076FD00287FF402
:10335800FAABAAF1100ABAF1100F2999289B34AADE
:10336800E7DC0E9C35468C4616460133D444072BC1
:10337800CDF8A4C0289386E8200400F3128208360A
:10338800EFE4002D08BF0A2C80F0388144AF3034B8
:1033980007F8414D049DEC1B51E40D9C012C289C21
:1033A80040F3D58101340CF101030122072C376069
:1033B80029932894726000F3DB810836DDF8508089
:1033C800119D356001349844149DCDF8A480072CD4
:1033D8002894756000F3D8810836DDE912010022CF
:1033E8000023FEF77FFD0D9D002840F0B9806B1E7D
:1033F800013401379844072C2894CDF8A48037600D
:10340800736000F3E2800836DDF854C0159D01347E
:10341800C44423AB072CCDF8A4C0289486E8280020
:103428007FF7F0AC0998089927AA02F005FD002853
:103438007FF489ABDDF8A4C034AEE4E409980899B8
:1034480027AA02F0F9FC00283FF435ADFFF77BBB53
:103458000998089927AA02F0EFFC00287FF473ABBB
:10346800DDF8A4C034AEBEE40998089927AA02F092
:10347800E3FC00287FF467ABDDF8A4C034AE5BE45E
:103488000998089927AA02F0D7FC00287FF45BABBB
:10349800DDF8A4C034AE60E4069C34AFFFF7CFBBC0
:1034A8000223FFF7A8BB219B002B40F3EB810D9C67
:1034B800109DDDF834A0AC42A8BF2C46002CBA44BD
:1034C8000BDD289B37600133A444072BCDF8A4C03B
:1034D8007460289300F328830836109D24EAE47466
:1034E8002C1B002C40F3DB80102C289B074D40F34D
:1034F800B18106974FF010082F4662462546DDF841
:1035080024B0089C09E000BFCC7200087C72000857
:103518000836103D102D40F3998101331032072BE6
:103528002992289386E88001F2DD5846214627AA89
:1035380002F082FC00287FF406AB299A289B34AE5F
:10354800E7E70998089927AA02F076FC00287FF493
:10355800FAAA9DF87FA0DDF8A4C034AEFFF7D9BB66
:103568006F1E002F7FF750AF102FB54D23DD434658
:103578004FF0100ADDF82480DDF820B004E0103F99
:10358800102F06F1080615DD01341033072C299396
:10359800289486E82004F2DD4046594627AA02F01E
:1035A8004BFC00287FF4CFAA103F102F299B289CA2
:1035B80034AEE9DC98460134B844072CCDF8A48031
:1035C800289486E8A0007FF71EAF0998089927AAD3
:1035D80002F032FC00287FF4B6AADDF8A480289C0B
:1035E80034AE11E794460133A444072BCDF8A4C0A8
:1035F8002893356074607FF705AC13E70DF1CF0BA6
:10360800204629460A220023FEF7C6FC30328BF8F2
:103618000020204629460A220023FEF7BDFC044666
:103628000D4654EA050C5F460BF1FF3BE8D1049DBB
:10363800EC1BFFF704BB0C9DDDF830C02C68E517C8
:1036480022462B460CF1040C002A73F10000CDF839
:1036580030C0BFF675AC4FF02D0A644265EB4505E6
:103668008DF87FA00123FFF7CABA0C9D2C6804359A
:103678000C950025FFF7BFBA0C9D2C6804350C95F6
:1036880001230025FFF7B7BA0998089927AA02F07D
:10369800D3FB00287FF457AADDF8A4C034AE109DF0
:1036A800219C2F440D9DAC4242DB059DE9073FD488
:1036B8000D98C7EB0A05041BAC42B8BF2546002D80
:1036C8000BDD289B37600133AC44072BCDF8A4C031
:1036D8007560289300F35282083625EAE575641B65
:1036E800002C7FF790AB102C289B554D7FF77BAFB4
:1036F80010276246DDF82480DDF820A004E00836B3
:10370800103C102C7FF76EAF01331032072B299233
:10371800289386E8A000F2DD4046514627AA02F029
:103728008BFB00287FF40FAA299A289B34AEE7E781
:10373800289B119D3560149D75600133AC44072B9F
:10374800CDF8A4C0289300F3FB810836B0E7059DA7
:10375800EA073FF527AE01340CF101080123072CD5
:10376800CDF8A4802894376073607FF74CAE2CE7BF
:103778000998089927AA02F05FFB00287FF4E3A9BB
:10378800299B289C34AE19E60998089927AA02F0C3
:1037980053FB00287FF4D7A9DDF8A480289C34AE19
:1037A8001BE60998089927AA02F046FB00287FF42F
:1037B800CAA9DDF8A4C034AEFFF7D3BA9DED120B49
:1037C80002F0CEFA002840F0C480059D1D4F1E4B24
:1037D8009DF87FA00690032425F0800507940595A1
:1037E8001090B8F1470FD8BF1F46FFF731BA0C9CAD
:1037F800E31D23F0070393ED007B08338DED127B67
:103808000C9373E4DDF814C01CF0100F00F0538122
:103818000C9C0A9D236804340C941D60FFF7A1B822
:10382800059C640640F14081DDF830C0BCF80040DA
:103838000CF1040C0025CDF830C0FFF7C8B900BF63
:103848007C72000898720008947200082C463D4665
:10385800069F94460133A444072BCDF8A4C02893AF
:10386800356074603FF710AF083618E70998089973
:1038780027AA02F0E1FA00287FF465A9DDF8A4C0C0
:1038880034AEF9E4289AB549316001320CF1010CE3
:103898000121072ACDF8A4C02892716000F3F480B2
:1038A80008361C462CB90D9D1DB9059DE8077FF506
:1038B800AAAA289B1499119D356001336144149D6F
:1038C8002991072B7560289300F3E98106F1080216
:1038D8006442002C40F31781102CA14D40F3448121
:1038E800A34610260C46DDF82480DDF820A006E06B
:1038F8000832ABF1100BBBF1100F40F333810133E9
:103908001034072B2994289382E86000F0DD4046A4
:10391800514627AA02F090FA00287FF414A9299C9E
:10392800289B34AAE5E7059C93F8018044F020041D
:1039380009F101090594FFF74AB80998089927AAD7
:1039480002F07AFA00287FF4FEA8DDF8A4C034AEAD
:10395800A8E4069C013428F0200A00F0A280BAF1FD
:10396800470F04D1069C002C08BF01240694DDE90A
:103978001223059D002B45F480750E95C0F2A98190
:103988009DED127B8DED1C7B4FF0000BB8F1660F9F
:1039980000F03981B8F1460F00F03581BAF1450FD2
:1039A8000CBF069C069D099808BF651C22AA25AB7A
:1039B8008DE80C009DED1C0B02212A4621AB00F07E
:1039C8000FFBB8F1670F074602D0B8F1470F05D1D2
:1039D800DDF814C01CF0010F00F09281BAF1460F17
:1039E80007EB050400F04381DDE91C0100220023F8
:1039F800FEF778FA002840F00481259B9C4206D9FE
:103A080030215A1C25921970259B9C42F9D8DB1B42
:103A1800BAF1470F0D9300F0DB80B8F1650F40F362
:103A2800E181B8F1660F00F05D81219C10940D9C36
:103A3800109DAC4200F34081DDF814C01CF0010F6A
:103A480040F08E8125EAE5732C464FF06708BBF1FC
:103A5800000F40F0C5800E9D07930595CDF818B06E
:103A68009DF87FA0FFF7F4B80998402101F024FAE7
:103A780020602061002800F0B781DDF820C04023D5
:103A8800CCF81430FEF75EBF0998089927AA02F00F
:103A9800D3F900287FF457A8219CDDF8A4C034AEE0
:103AA80000E70625069562E70C9D2C6804350C9501
:103AB8000025FFF78CB8DDF814C01CF0400F7BD050
:103AC8000C9C0A9D236804340C941D80FEF749BFA2
:103AD800CDF818A002F080F90C9520EAE07C069D4C
:103AE800CDF81CC0044610959DF87FA0FFF7B0B82C
:103AF8000998089927AA02F09FF900287FF423A8BB
:103B08002999289B34AADDF834C00D9C176001332D
:103B18008C44072BCDF8A4C0289354603FF782AC9F
:103B280002F10806FFF76FB90998089927AA02F069
:103B380083F900287FF407A8DDF8A4C034AECCE4EC
:103B48000998089927AA02F077F900287EF4FBAFB4
:103B5800219CDDF8A4C034AEAAE500BFCC720008F1
:103B68007C72000821465C4601332144072B2991C9
:103B7800289315605460BBDC0832C4E7099808999B
:103B880027AA02F059F900287EF4DDAF219C0D998F
:103B9800DDF8A4C00C1B34AE9FE5069C1097062CDC
:103BA80028BF062424EAE47CBA4606970C95CDF88B
:103BB8001CC0924FFFF74CB8DDF830C00A9CDCF807
:103BC80000300CF1040CCDF830C01C60FEF7C9BE03
:103BD800219BDC1C26DB069C9C4223DB109326E7FA
:103BE8000E9D05954FF02D0A002507938DF87FA0AF
:103BF8000695FFF730B84FF02D0A8DF87FA0FFF734
:103C080087BA234603E722AA25AB8DE80C0009985A
:103C1800069A9DED1C0B032121AB00F0E1F9069DEE
:103C28000746DBE6A8F10208013B002B2193BABF47
:103C38005B422D222B22092B8DF88C808DF88D204C
:103C480060DC303330228DF88F308DF88E2024AB35
:103C58000D9D0D9C23AA9A1A012D1592144440F328
:103C6800B2800134002524EAE4731095EFE63B782E
:103C7800302B00F08380219D2C44B5E624EAE47CB7
:103C8800CDF81CC0069C0C95069010909DF87FA05E
:103C9800FEF7DEBF002481460694FEF79ABE099817
:103CA800089927AA02F0C8F800287EF44CAF219C96
:103CB8002999289B34AA0BE6109C0D9D002CD4BF93
:103CC800C4F1020401242C4424EAE4734FF0670889
:103CD800BDE6139912981C9001F100411D914FF017
:103CE8002D0B53E6219D1095002D069C54DD002CCC
:103CF8003DD1059DE8073AD4109C24EAE473A6E672
:103D0800259B84E60DF19A003D4DDA1785FB03519A
:103D1800C2EBA10101EB81040246A3EB440303F1CA
:103D28003000092910700B4602F1FF30ECDC01F17C
:103D380030030DF19B04D9B2844202F8011C5AD910
:103D48000DF18D00134601E013F8011BA34200F8A2
:103D5800011FF9D10DF5887CC2EB4C03F63B77E7E0
:103D6800109D6C1C24EAE4734FF067086FE6069D0B
:103D78006C1C109D2C4424EAE47368E6DDE91C0100
:103D880000220023FEF7AEF800287FF474AFC5F1D7
:103D9800010521952C4427E6FCB9059DE9071CD4AB
:103DA80001231C4653E60C9DDDF830C02D6899F8B8
:103DB800018006950CF10403002D0C938146BEF694
:103DC80006AEFEF701BEDDF814C01CF001037FF457
:103DD80048AF109324EAE47339E6069DAC1C24EA44
:103DE800E47334E6219B1FE7099D0C232B604FF0F9
:103DF800FF30FEF7B0BE0DF18E0329E7C47200084C
:103E080067666666AFF30080F0B5274C2668D6F87B
:103E1800484185B00746002C41D065681F2D1EDD3E
:103E2800224818B94FF0FF3005B0F0BD4FF4C87004
:103E3800039102920193AFF300800399029A019BC8
:103E480004460028EED0D6F848512560002060606E
:103E58000546C6F84841C4F88801C4F88C013FB942
:103E6800AB1C00200135656044F8231005B0F0BD97
:103E780004EB85004FF0010CC0F88820D4F8886165
:103E88000CFA05F21643022FC4F88861C0F808310D
:103E9800E6D1D4F88C311A43C4F88C21E0E706F552
:103EA800A674C6F84841B8E7787200080000000018
:103EB8002DE9F04F03690D699D4283B0834600F3F5
:103EC8008B80013D01F1140400F1140A54F82520F7
:103ED8005AF825300132B3FBF2F8AA009146009255
:103EE8005244A1440192B8F1000F3DD04FF0000EAA
:103EF8007046224653468C4652F8046B1968B7B28E
:103F0800360C07FB08EE06FB08F606EB1E461FFA02
:103F18008EF7C71BB0B217FA81F7C0EB114000EB60
:103F28002740BFB247EA0047914543F8047B4FEA70
:103F380020404FEA164EDFD2009A5AF80230614606
:103F480093B9019A131F9A450CD252F8043C4BB905
:103F5800A2F1080302E01A68043B1AB99A4505F170
:103F6800FF35F8D3CBF81050584601F0F7FC00287D
:103F78002EDB08F101085346002254F8046B186838
:103F8800B1B2521A360C12FA80F1C6EB104202EBAB
:103F9800214289B241EA0241A14543F8041B4FEA94
:103FA8002242EAD25AF825200AEB850382B91A1F61
:103FB80092450BD253F8042C42B9083B02E01A6828
:103FC800043B1AB99A4505F1FF35F8D3CBF81050E0
:103FD800404603B0BDE8F08F002003B0BDE8F08F85
:103FE8002DE9F04F9DB004460491016C269D069280
:103FF80009935BEC10AB49B1436C4B60012202FAA8
:1040080003F38B6001F066FA00232364BBF1000F11
:10401800D94635DB00232B60A54B1A4609EA030372
:10402800934216D00022002350465946FDF75AFF06
:1040380056465F46804648B3099E01233360279E53
:10404800002E00F0C9809B48306001381DB0BDE8E3
:10405800F08F099E42F20F733360BAF1000F00F03F
:10406800A4809548279E002EF0D0C378002B00F03E
:10407800B58000F10803279E33601DB0BDE8F08FBE
:1040880001232BF000492B60CB46C5E7204647ECBF
:10409800106B1BA91AAA01F06FFD5FEA19550C9065
:1040A80040F08C801A9F1B9D6FF482633D449D42B3
:1040B800C0F297821F3305F212425B1B09FA03F321
:1040C8002AFA02F243EA0200FDF72EFC0126013D1E
:1040D800B846A1F1F87118960022784BFDF7E6FA78
:1040E8006DA3D3E90023FDF795FC6DA3D3E9002365
:1040F800FDF7DEFA064628460F46FDF725FC6AA3BB
:10410800D3E90023FDF786FC02460B4630463946C4
:10411800FDF7CEFA06460F46FDF716FF394608901A
:10412800002230460023FDF7E7FE002840F02A82EF
:10413800089E162E00F22382614B03EBC603D3E9D7
:10414800000152465B46FDF7F5FE002800F04E825E
:10415800013E089600261096C5EB0805013D079517
:1041680000F12A8200260A96089E002EC0F21882C4
:10417800DDF81CE00F96B6440026CDF81CE00E963C
:10418800049E092E2CD8052EC4BF043E049604991B
:10419800A1F10203CCBF00260126032B22D8DFE8B9
:1041A80013F0AE03A302B703AB04464A424BC9F36C
:1041B800130000280CBF1046184653E7CBF313032F
:1041C80043F07F51CDF860805046A5F2FF3541F4A9
:1041D8004011DDF868807FE73B4837E7C31C4AE7B2
:1041E80000260496002565642946204601F04CF90E
:1041F8004FF0FF3901260B9006952064CDF84490C6
:104208000D961B9B002BC0F2D180089E0E2E00F34A
:10421800CD802B4B03EBC60393ED007B069E002E4F
:104228008DED047BC0F27783DDE9042359465046BF
:10423800FDF71AFDFDF788FE0546FDF785FBDDE96C
:104248000423FDF7E7FB0B46024659465046FDF7A7
:104258002DFADDF82CE005F13003B9F1010F06461F
:104268000F468EF800300EF1010B61D00022174B7B
:10427800FDF7D0FB0022002306460F46FDF732FE6D
:1042880000287ED1DDF82C800B9B0694C844DDE91C
:1042980004AB03F1020926E061436F63A787D23FAD
:1042A800B3C8608B288AC63FFB799F501344D33F1D
:1042B8000000F07FCD720008EC7200080000F83FA3
:1042C80000730008E0720008CC7200080000244067
:1042D800FDF7A0FB0022002306460F46FDF702FE6D
:1042E800002840F0D38352465B4630463946FDF7F6
:1042F800BBFCFDF729FE0546FDF726FB52465B464B
:10430800FDF788FB02460B4630463946FDF7CEF9E5
:1043180005F1300EC14509F801EC4C4606460F463A
:104328004FF00002A94B09F10109D1D1A346069C1F
:1043380032463B4630463946FDF7BAF906460F463F
:104348003246DDE904013B46FDF7D6FD40B9DDE91B
:10435800040132463B46FDF7C5FD90B1EB0710D589
:104368001BF8015C0B9A05E09A4200F0318413F8BF
:10437800015C9B46392D0BF1FF33F5D06A1CD2B294
:104388001A7020460C9901F0A5F8089E731C099E26
:1043980000228BF800203360279E002E00F01E8339
:1043A8000B98C6F800B01DB0BDE8F08F0D9E002E2A
:1043B80000F00781049E012E40F3D5820E9E09F17C
:1043C800FF37BE42C0F29B83F71BB9F1000FC0F262
:1043D80092840A9D4B460A9E1E440A96079E2046D2
:1043E8001E440121079601F065F9064665B1079953
:1043F800002909DD0B460A9AAB42A8BF2B46D21A00
:10440800C91A0A92ED1A07910E9B002B1BDD0D9914
:10441800002900F06A83002F11DD31463A46204614
:1044280001F0F0F9064631460C9A204601F04CF9A5
:104438000C998046204601F04DF8CDF830800E9B4F
:10444800DA1B40F08A820121204601F033F90F99E6
:104458000029804605DD01460F9A204601F0D2F971
:104468008046049A012A40F3CB8200270F9900293D
:1044780040F0AA820120079B034413F01F0300F0B9
:10448800A780C3F12002042A40F3C9840A9ADDF800
:104498001CE0C3F11C031A449E440A921D44CDF843
:1044A8001CE00A9B002B05DD0C991A46204601F0FA
:1044B800F7F90C900799002905DD4146079A20462F
:1044C80001F0EEF98046109A002A40F06282B9F1B4
:1044D800000F40F3B0820D9A002A40F089800D9DAC
:1044E8000C9FDDF82CB006E0394620460A2200234E
:1044F80000F0FAFF074638464146FFF7D9FC30304E
:104508000BF805000135A945EEDCDDF82CB00C9759
:104518008246B9F1010FACBFCB440BF1010B00256A
:104528000C990122204601F0BBF941460C9001F09C
:1045380015FA002840F311831BF8012C0B9905E0AC
:10454800994200F09A8213F8012C9B46392A0BF104
:10455800FF33F5D001321A704146204600F0BAFF09
:10456800002E3FF40EAF2DB1B54203D029462046A8
:1045780000F0B0FF3146204600F0ACFF01E701260D
:104588001096E9E50898FDF7DFF932463B46FDF756
:10459800A9FC00287FF4CCAD089E013E0896C7E52B
:1045A8000A9EDDF820E0CEEB06060A96CEF100065C
:1045B8000E9600260F96E3E56E420A9600260796A9
:1045C800D2E50E9F0A9D0D9E10E700BF0000244013
:1045D8001C230A99079A19441A440A911D44079200
:1045E8005FE74048401B0AFA00F06DE51090B3E51C
:1045F800002D05DD31462A46204601F051F90646D0
:10460800002F40F0EF8237460B9B0B9A4B440AF081
:1046180001010A930D91551CDDF830900AE000F075
:1046280063FF394606460A222046002300F05CFF55
:104638000746013541464846FFF73AFC314683466E
:10464800484601F08BF93A4606904146204601F06B
:10465800A9F9C26805F1FF3E03460BF1300ACDF80F
:104668001CE0002A40F0888119464846039301F06F
:1046780075F9039B024619462046039200F02AFF6B
:10468800039A2AB9049919B90D9B002B00F0A78346
:10469800069B002BC0F2428205D1049919B90D9BE3
:1046A800002B00F03B82002A00F3B0820A9905F83B
:1046B80001AC8D42AB4600F0BA8249460A2200237B
:1046C800204600F011FFBE428146314620464FF099
:1046D8000A024FF00003A2D100F006FF0646074683
:1046E800A7E700BFEEFBFFFF00210D91069A089B8C
:1046F8001A4402F10109B9F1000F11924D4640F335
:1047080045810021172D61640AD9012204235B0029
:1047180003F11400A842114602F10102F7D96164BD
:10472800204600F0B1FE0E2D0B9020643FF669ADD7
:10473800002E3FF466AD089E002ECDE914AB40F381
:104748002082A84B06F00F0203EBC2033511D3E910
:104758000067EB0640F1DB81A34B50465946D3E98D
:104768000823FDF781FACDE9120105F00F054FF096
:1047780003088DB1DFF870A230463946EE0705D53B
:10478800DAE90023FDF746F908F101086D100AF18E
:10479800080AF3D106460F46DDE9120132463B46C8
:1047A800FDF762FA82468B46109E46B1504659463E
:1047B80000228E4BFDF7A0FB002840F0BD8240464A
:1047C800FDF7C2F852465B46FDF724F90022884BF4
:1047D800FCF76EFF0646A1F15077B9F1000F00F023
:1047E800688108991991C8460D9A002A00F0288214
:1047F8007C4B804903EBC80353E902230020FDF7F3
:1048080033FA32463B46FCF751FFCDE912015946CF
:104818005046FDF799FB0546FDF796F802460B460C
:1048280050465946FCF742FF30350B9ECDE9000152
:10483800EDB23570DDE91201DDE9002306F1010B67
:10484800FDF778FB002840F0BF82DDE90023002057
:104858006649FCF72BFF02460B46DDE91201FDF71E
:1048680069FB002840F0B682B8F1010F40F385815A
:10487800B044CDF85890A246C146DDE90067DDE9AD
:1048880012450DE000205949FCF710FF22462B463F
:10489800FDF732FB002840F09B82CB4500F06A818F
:1048A800204629460022544BFDF7B4F80022524B0B
:1048B80004460D4630463946FDF7ACF80F46064625
:1048C800FDF742FB8046FDF73FF802460B463046AF
:1048D8003946FCF7EBFE08F130085FFA88F8224603
:1048E8002B460BF8018B06460F46FDF705FB3246B3
:1048F8003B460028C6D0199E0896544641E500223A
:104908000D92069B002B3DDD1D4611939946F8E656
:1049180001230D93F5E7B9F1000F3FF785AC40F09F
:10492800E0800022354BDDE90401FDF773F85246BB
:104938005B46FDF7F5FAC8464E46002800F0918020
:10494800069BDDF82CB0DB4308934146204600F077
:10495800C1FD002E7FF40EAE13E50C99204600F041
:1049680051FF0C906FE5189E002E00F0CA8103F2EB
:1049780033430E9F0A9D2EE50146204600F0AAFD0E
:10498800012285E601251195A94606950021616455
:10499800C6E60C98414600F0E1FF0028BFF697AD47
:1049A800DDF820E00C990EF1FF3E20460A22002394
:1049B800CDF820E000F098FD0D990C90002940F00A
:1049C8002082DDF8449082E5D8F8103008EB8303A4
:1049D800186900F021FEC0F120004CE50B98FFF7A4
:1049E80035BB00BF00730008C87300080000F03F23
:1049F80000001C400000E03F00002440000014407C
:104A0800BAF1000F7FF431ADCBF31303002B40F064
:104A18007F812BF000473F0D3F05002F3FF426AD67
:104A28000A9BDDF81CE001330EF1010E0A93CDF864
:104A38001CE001271AE5049A022A7FF74CADB9F168
:104A4800000F7FF47DAF41464B460522204600F01B
:104A58004BFD804641460C9800F080FF00287FF708
:104A68006FAFDDF820E00B9931230EF1010ECDF880
:104A780020E00B7001F1010B67E7089ADDF82CE0E4
:104A88003123013208928EF8003065E5A346069C72
:104A980077E44046FCF758FF02460B465046594615
:104AA800FCF7B8FF00229E4BFCF702FE0646A1F178
:104AB80050775046594600229A4BFCF7F7FD32468C
:104AC8003B4682468B46FDF735FA002840F0B48015
:104AD800324607F1004350465946FDF70DFA0028C3
:104AE8004BD04FF0000846462AE70C990E9A20460C
:104AF80000F088FE0C90A6E401210D91F6E50E9ECB
:104B08000E97BB1B0F9E1E440F9600275DE49DED7C
:104B1800147B4FF002088DED127B2AE6002ACDF8AF
:104B28003090D94611DD0C990122204600F0B8FEDC
:104B380041460C9000F012FF002840F35B81BAF167
:104B4800390F00F0238109F1310A3546079E86F8AE
:104B580000A006F1010B3E46FEE403D11AF0010F56
:104B68007FF4EAAC5B469B46013B1BF8012C302ADC
:104B7800F9D0F1E4DDF858905446DDE914ABFFF7BD
:104B880040BB089E7542002D00F0C580664B05F0BD
:104B98000F0203EBC203D3E90023DDE91401FCF79C
:104BA80039FF2D1182468B4600F036815F4E4FF05B
:104BB8000208EA0705D5D6E90023FCF72BFF08F120
:104BC80001086D1006F10806F3D182468B46EBE525
:104BD800089E013608960B9E3022327031221A70D8
:104BE800FFF7CFBB7168204600F04EFC33699A1C72
:104BF8000546920006F10C010C30FCF7ABFB204691
:104C08002946012200F04CFE0746FDE4BAF1390FAF
:104C1800CDF8309000F0BA80DDF81CE00AF101030D
:104C280035468EF800300EF1010B3E4694E43546C9
:104C3800CDF830903E4673E44FF00008464610E742
:104C4800394908F1FF3E01EBCE0132463B46D1E936
:104C58000001CDF848E0FCF7DDFECDE91601594624
:104C68005046FDF771F90546FCF76EFE02460B4605
:104C780050465946FCF71AFD0F460B993035B8F1E6
:104C8800010F06460D7001F1010B21D00B994B1E47
:104C98000D4603EB080A304639460022244BFCF740
:104CA800B9FE0F460646FDF74FF98046FCF74CFE65
:104CB80008F1300802460B4630463946FCF7F6FC48
:104CC80005F8018F5545E8D1129A06460F469344D8
:104CD8000022184BDDE91601FCF7EAFC32463B4698
:104CE800FDF70AF900285BD0199E08961BF8015CAD
:104CF8000B9AFFF73FBB0A9E0023C9EB0605FFF797
:104D08006ABB1A9B0E9F0A9DC3F13603FFF763BB6C
:104D18005746FFF7ABBBDDE914AB4FF0020843E59C
:104D280000001C400000144000730008C87300080D
:104D3800000024400000E03FB9F1000F3FF4A9AEA5
:104D4800119E002E7FF719AF0022384B5046594666
:104D5800FCF760FE824608F101008B46FCF7F4FD83
:104D680002460B4650465946FCF754FE0022304B8B
:104D7800FCF79EFCDDF820E0DDF844800EF1FF3EF4
:104D88000646CDF864E0A1F150772DE5079B0B9915
:104D9800392235461A703E4603F1010BFFF7D6BBA0
:104DA800DDE9162300202349FCF780FC32463B4608
:104DB800FDF7C0F800283FF4E0AE5B469B46013B98
:104DC8001BF8012C302AF9D0199E0896FFF7D9BA9A
:104DD80045465446199E08960B9AFFF7CBBABAF186
:104DE800390FCDF83090D946D0D0069B002B3FF72D
:104DF800AAAEAAE67FF4A9AE1AF0010F3FF4A5AE59
:104E08009DE6314620460A220023DDF8449000F052
:104E18006BFB0646FFF75BBB4FF00208C4E43FF4A8
:104E280040ABC3F13C03FFF7D4BB00BF00002440F4
:104E380000001C400000E03F10B5144622B11046A7
:104E48000A49FCF721FB08B9094810BD2046084962
:104E5800FCF71AFB0028F7D020460649FCF714FB9C
:104E6800034B00280CBF1846002010BDF072000844
:104E780074720008AC72000800487047B40400203F
:104E8800014B1868704700BFD404002000487047E1
:104E98005C04002000207047004870477C04002014
:104EA800024B0A4601461868FFF7C6BF580400209F
:104EB800004870477C0400202DE9F04F01F10B05F4
:104EC800162D83B0064627D935F0070527D4A94201
:104ED80025D8304600F0D4FAB5F5FC7F26D2C14F6C
:104EE8004FEAD50C07EBCC03DC689C4200F0D2817A
:104EF8006368E268A16823F00303234430465D68D1
:104F0800CA6045F0010591605D6000F0BBFA0834A5
:104F1800204603B0BDE8F08F1025A942D9D9002456
:104F28000C232046336003B0BDE8F08F5FEA552CB0
:104F380000F08A80BCF1040F00F260814FEA951CF2
:104F48000CF1380C4FEA4C01A64F07EB8101CC68F5
:104F5800A14205D10CE0002B7ADAE468A14207D01F
:104F6800626822F00302531B0F2BF4DD0CF1FF3CA7
:104F78000CF1010C9B4B3C6903F1080E744500F0E1
:104F88007E81616821F003014A1B0F2A00F36481C6
:104F9800002AC3F814E0C3F810E06ADAB1F5007F1C
:104FA80080F03A81C90803EBC1004FEAA1085A68AA
:104FB8008168A1604FF0010909FA08F848EA02027D
:104FC800E0605A608460CC604FEAAC0301209840EE
:104FD80090425BD8024206D12CF0030C40000242FA
:104FE8000CF1040CFAD007EBCC084446E146E36820
:104FF8009C4207D145E1002A80F25681DB689C4239
:1050080000F03F81596821F003014A1B0F2AF2DDA5
:105018001C46D3F80CC054F8088F591945F00109FB
:1050280042F00105C3F804903046C8F80CC0CCF82B
:10503800088079613961C1F80CE0C1F808E04D6079
:105048008A5000F01FFA63E77E214FF03F0C7BE7A0
:105058002244E3685068A16840F00105CB603046FF
:105068009960556000F00EFA0834204603B0BDE898
:10507800F08F214430464B6843F001034B6000F049
:1050880001FA0834204603B0BDE8F08FBC686368B5
:1050980023F00309A94504D3C5EB09030F2B00F33B
:1050A8009180514B514A19681368013305EB010A85
:1050B80004EB090B00F061810AF5805A0AF10F0A26
:1050C8002AF47F6A2AF00F0A30465146019200F00E
:1050D80071FEB0F1FF3F8046019A00F000818345E0
:1050E80000F2FA80DFF810C1DCF80030C345534401
:1050F800CCF8003000F04A8112683C4901321BBFED
:10510800CBEB080B5B44C1F80080CCF8003018F0FA
:10511800070300F01381C3F10802C3F580539044DC
:105128000833C244CAF30B0ACAEB030A5146304695
:10513800CDF804C000F03EFE431CDDF804C000F0CA
:105148003581C8EB0002524442F00102DCF800301D
:10515800C7F808805344BC42C8F80420CCF8003093
:10516800DFF894A015D0B9F10F0F40F2EA8061681A
:10517800A9F10C0222F0070201F0010EA118052086
:1051880042EA0E0E0F2AC4F804E04860886000F274
:105198001181174ABC6811688B4288BF1360154A91
:1051A80011688B4288BF1360626822F0030295423F
:1051B800C5EB020301D80F2B04DC304600F062F97E
:1051C8000024A5E6621943F0010345F00105656076
:1051D8003046BA60536000F055F90834204603B0F1
:1051E800BDE8F08FD804002044090020E40800201E
:1051F800400900203C09002048090020BCF1140F98
:1052080061D9BCF1540F00F28F804FEA153C0CF1C4
:105218006E0C4FEA4C0197E64B0A042B58D9142B15
:1052280000F2AE8003F15B02500007EB8000DFF86C
:10523800BC818368834200F08A805A6822F00302A6
:10524800914202D29B689842F7D1D9687A68E160A6
:10525800A3608C60DC60B7E6611942F0010745F095
:1052680001056560304659611961C1F80CE0C1F863
:1052780008E04F608A50083400F004F948E65A689C
:10528800A2E609F1010919F0030F04F108047FF4FB
:10529800AEAE2DE004F108036469A34208BF0CF127
:1052A800020C3FF467AE23E619441C464868DB68E5
:1052B80054F8082F40F001054D603046D3609A60DD
:1052C80000F0E0F824E60CF15B0C4FEA4C013BE6F9
:1052D8008A0938325000A8E7BC423FF403AFBC68E3
:1052E800626822F0030262E7D8F8008098457BD113
:1052F8001CF0030FA8F108030CF1FF3CF4D17B6804
:1053080023EA00037B60400098423FF6BFAE0028C6
:105318003FF4BCAE0342CC467FF465AE4000034286
:105328000CF1040CFAD05EE6BCF5AA7F1AD84FEA55
:10533800D53C0CF1770C4FEA4C0105E64FF480534D
:10534800EFE60123C8F80430444600222FE7911005
:105358000120D8F8042000FA01F10A43C8F8042013
:10536800194674E740F254539C451BD84FEA954CB4
:105378000CF17C0C4FEA4C01E6E50AF1100AA3E6B1
:10538800542B1FD80A0B6E3250004EE7CBF30B019B
:1053980000297FF4B1AE0AEB0901BA6841F00101B6
:1053A8005160F6E6FC214FF07E0CCDE501224FF06E
:1053B800000ACBE604F10801304601F0D9FBDAF81F
:1053C8000030E6E6B3F5AA7F03D8CA0B773250005F
:1053D8002BE740F25452934203D88A0C7C32500097
:1053E80023E7FC207E2220E77B688CE7D804002096
:1053F800830770B4C9B23FD0541E2AB303788B42D6
:1054080023D0431C04E0FCB104788C421DD0144620
:1054180013F0030F184604F1FF3203F10103F2D130
:10542800032C14D8651E4CB303788B420DD0421C54
:10543800002302E004788C4207D0AB42104603F107
:10544800010302F10102F5D1002070BC704741EA66
:105458000126034646EA06461846043302687240A7
:10546800A2F1013525EA020212F0803FDAD1043CAC
:10547800032C1846F0D8D5E71446D1E72046E4E7D0
:10548800704700BF704700BFC26C70B505460C4638
:105498004AB152F8240080B1016842F82410002271
:1054A8000261C26070BD2122042101F0E3FAE864C0
:1054B80002460028EDD1002070BD012101FA04F652
:1054C800721D2846920001F0D5FA0028F3D04460F6
:1054D8008660E4E731B1C36C4A6853F8220008607B
:1054E80043F82210704700BF2DE9F047D1F810802B
:1054F80082B08946824601F1140500242F68BEB2A5
:105508003F0C02FB063602FB07F303EB164301349C
:10551800B6B206EB0346A04545F8046B4FEA1343C1
:10552800ECDC53B1D9F8082090450ADA09EB880178
:1055380008F101024B61C9F81020484602B0BDE8E5
:10554800F087D9F80410019301315046FFF79CFF0A
:10555800D9F81020023209F10C01044692000C30EF
:10556800FBF7F8FEDAF84C20D9F80410019B52F842
:105578002100C9F8000042F82190A146D6E700BFF3
:105588002DE9F8439946234B089E09F1080483FB4B
:105598000453E417C4EB6303012B07460C469046FB
:1055A80035DD012500216D00AB4201F10101FADC76
:1055B8003846FFF769FF0123B8F1090F4661036117
:1055C80021DD04F109063546444415F8013B01463E
:1055D800303B38460A22FFF787FFA542F5D106EB94
:1055E8000804083CC1450CDDC8EB0908A04414F8C0
:1055F800013B0146303B38460A22FFF775FF444518
:10560800F5D1BDE8F8830A344FF00908EAE700212C
:10561800CEE700BF398EE338030C1B04B3B900048E
:10562800102310F07F4F04BF0002083310F0704FB2
:1056380004BF0001043310F0404F04BF8000023360
:10564800002807DB420003D4202070470023E8E746
:10565800581C704718467047036813F0070207D0B4
:10566800D90720D49A0720D49B08036002207047EA
:1056780099B209B91B0C102213F0FF0F04BF1B0AC3
:105688000832190704BF1B090432990704BF9B0895
:105698000232D90704D45B0801D1202070470132B7
:1056A800036010467047002070475B0803600120C4
:1056B800704700BF10B50C460121FFF7E5FE012237
:1056C8004461026110BD00BF2DE9F04F0D69D2F8A9
:1056D80010904D4585B00C46924604DA2A46544649
:1056E8004D468A469146A368616805EB09079F42C3
:1056F800C8BF0131FFF7C8FE00F1140606EB8708A2
:105708004645019005D23346002043F8040B9845DE
:10571800FBD80AF1140C0CEB89091434CC4500941D
:1057280004EB85055BD2CDF808800397C8465CF882
:10573800043B9CB224B3009A33464FF0000900E0C2
:105748000B4652F8047B19681FFA87FB1FFA81FA87
:10575800380C090C04FB0BA7B94404FB001000EB40
:10576800194019461FFA89F949EA004795424FEA54
:10577800104941F8047BE3D8C3F804905CF8043C72
:105788005FEA134924D0D6F800A0009B5046314662
:105798004FF0000B00E011461A88000C09FB0200CC
:1057A80083441FFA8AFA0A464AEA0B4042F8040B75
:1057B80053F8047B48684FEA174A84B209FB0A4A3F
:1057C8000AEB1B4A9D424FEA1A4BE4D8C1F804A0E1
:1057D800E04506F10406AAD8DDF80880039F002FEB
:1057E8000ADD58F8043CA8F104081BB104E058F895
:1057F800043D0BB9013FFAD1019B18461F6105B062
:10580800BDE8F08F12F003032DE9F0411446074676
:105818000E462CD1A4101CD0BD6C002D30D04FF0FA
:10582800000804E0641014D02868A8B10546E3070E
:10583800F8D5384631462A46FFF746FFAEB17268BA
:10584800FB6C641053F82210316043F8226006465E
:10585800EAD13046BDE8F081384629462A46FFF7A6
:1058680033FF2860C0F80080E0E70646DAE75D1EEF
:105878000A4A002352F82520FFF736FE0646C9E7F4
:1058880001213846FFF700FE40F271210122002372
:10589800416102610546B8640360C0E718740008F6
:1058A8002DE9F84F93460A698B684FEA6B1A0AEBA1
:1058B800020909F101069E420F468046496804DD47
:1058C8005B009E4201F10101FADC4046FFF7DCFD76
:1058D800BAF1000F00F1140409DD00231A46254629
:1058E8000133534545F8042BFAD104EB83043A6994
:1058F80007F114031BF01F0B03EB820C21D0CBF133
:10590800200A002200E02C461968254601FA0BF10E
:105918000A4345F8042B53F8042B634522FA0AF28C
:10592800F1D362600AB109F10206D8F84C307A68FE
:10593800013E53F822100661396043F82270BDE831
:10594800F88F53F8042B44F8042B9C45EDD953F8F1
:10595800042B44F8042B9C45F3D8E6E702690B694D
:10596800D21A10B415D19B001430143119440344D1
:1059780001E0984211D253F8042D51F8044DA24287
:10598800F7D0944294BF01204FF0FF305DF8044BEC
:10599800704710465DF8044B704700205DF8044BD3
:1059A800704700BF2DE9F0470D46044611462846CA
:1059B8001646FFF7D3FF071E55D04EDB4FF0000801
:1059C80069682046FFF760FD2F693269C0F80C80CE
:1059D8001435143600F1140305EB870C06EB820826
:1059E800002156F8042B55F8044B1FFA82F911FAD6
:1059F80084FA110CC1EB1441C9EB0A0201EB2241F4
:105A080092B242EA0142B04543F8042B4FEA2141E1
:105A18002C46E6D8AC45984615D954F8046B11FACB
:105A280086F1360C06EB214689B241EA0642A445C6
:105A380043F8042B4FEA2641EFD8EB43634423F0A5
:105A4800030304334344043B22B953F8042D013FB4
:105A5800002AFAD00761BDE8F0872B464FF001080D
:105A680035461E46ACE720463946FFF70DFD0123B3
:105A780047610361BDE8F08753EC102B23F0004326
:105A88001B0D1B05A3F15071002904DD0B460022F4
:105A980043EC102B70474942091513290CDD3229B4
:105AA800DDBFC1F13301012000FA01F1012100231A
:105AB8000A4643EC102B70474FF4002040FA01F3DC
:105AC800002243EC102B7047F8B5046900F1140666
